:100000000C9434000C943E000C943E000C943E0082
:100010000C943E000C943E000C943E000C943E0068
:100020000C943E000C943E000C943E000C943E0058
:100030000C943E000C943E000C943E000C943E0048
:100040000C943E000C943E000C943E000C943E0038
:100050000C943E000C943E000C943E000C943E0028
:100060000C943E000C943E0011241FBECFEFD8E04C
:10007000DEBFCDBF0E9440000C947F000C940000B6
:10008000209A2198299A20E030E083B1827090E094
:100090002230310589F02330310598F421153105DE
:1000A00031F12130310589F320E030E083B18270F5
:1000B00090E02230310579F7892B39F723E030E0E1
:1000C000E4CF2330310509F32430310569F7892B5A
:1000D000E1F6289A2FEF89E698E121508040904080
:1000E000E1F700C00000289820E030E0CECF51E0DA
:1000F00040E0892B09F050E0252F342FC6CFF8942B
:02010000FFCF2F
:00000001FF
